:020000040800F2
:100000000020002025040008990400089904000835
:10001000990400089904000899040008990400084C
:10002000990400089904000899040008990400083C
:10003000990400089904000899040008990400082C
:10004000990400089904000899040008990400081C
:10005000990400089904000899040008F9040008AC
:1000600099040008990400089904000899040008FC
:1000700099040008990400089904000899040008EC
:1000800099040008990400089904000899040008DC
:1000900099040008990400089904000895020008D2
:1000A00099040008990400089904000899040008BC
:1000B000990400089904000880B500AF254B254A33
:1000C000126801210A431A60234B234A12688021D7
:1000D00089030A431A60214B204A1268C021C900D3
:1000E0000A431A60A023DB05A022D2051268A021D2
:1000F00089030A431A60A023DB05A022D2051268F7
:1001000017490A401A60174B164A126816490A40E6
:100110001A60144B134A1268882149000A431A6076
:10012000124B124A126812490A401A60114B124AC5
:100130001A60124B114A1268802109040A431A609E
:100140000F4B104A1A60104B46221A600023180009
:10015000BD4680BD2C100240381002400400005003
:10016000FFFFEBFF240000500FF0FFFF28100240BC
:10017000FFFFDFFF10540040130F421000E100E0CA
:100180001C540040383F00000054004080B584B04B
:1001900000AF7860374BFB60374B374A126801215C
:1001A0008A431A60354B7A681A60344B1B68002208
:1001B0005A60324B1B6800229A60304B1B68002249
:1001C0005A612E4B1B6800229A612D4B1B682D4AE9
:1001D0001340BB60294B1B68DB681A04FF231B0418
:1001E0001340BA681343BB60BB68FF229343BB60F4
:1001F000224B1B685B78DBB25B00FE2213401A00C7
:10020000BB681343BB60BB681F4A1340BB607B687D
:100210001B7820221343DAB27B681A70BB681B4A32
:100220001340BB60BB681A4A1340BB60144BBA68EA
:100230001A60114B104A126801210A431A6000F03B
:10024000D5F8C0460D4B1B689B69002B04D1FB6899
:100250005A1EFA60002BF5D1FB68002B02DC01234B
:100260005B4202E0054B1B685B691800BD4604B0A9
:1002700080BDC046FFFF0000005400400400002085
:1002800004540040FFFF00FFFFF7FFFFFFFBFFFFED
:10029000FFFFFFFD90B583B000AF4D4B1A684D4B8B
:1002A0001A604C4B1B680222134016D04A494B4B34
:1002B0001A684A4B1B685B68D3181B7FDBB20B7054
:1002C000464B1B685A68454B1B68DB689A4204D250
:1002D000424B1B685A6801325A603E4B1B6804222D
:1002E000134024D03D4B19683C4B1B689A68501C46
:1002F00098603B4B1B78DCB29E208B181B18221C8D
:100300001A70364B1B689A68344B1B681B699A42FB
:100310000DD3324B1B6800229A6000F075F82F4B0A
:100320001B6802225A612D4B1B6801229A61294BDE
:100330001B684022134029D0284B1B681B78DBB276
:10034000772B0AD1254B1B6801225A6100F05CF81B
:10035000224B1B6801229A6118E0224B1B68224A3B
:1003600013407B601D4B1B681B691A04FF231B0491
:1003700013407A6813437B607B688022D20013436A
:100380007B60184B7A681A6000F030F8114B1B68DC
:100390008022134009D0114B1B6802225A6100F0E1
:1003A00033F80E4B1B6801229A610A4B1A68F0233E
:1003B0001B01134008D0094B1B68012252425A61AD
:1003C000064B1B6801229A61C046BD4603B090BD32
:1003D0001854004000000020285400400400002071
:1003E0002454004004540040FFFF00FF80B500AFDC
:1003F000044B044A1268802189010A431A60C046EE
:10040000BD4680BD0454004080B500AF044B044A93
:1004100012688021C9010A431A60C046BD4680BDEA
:100420000454004080B584B000AF164BFB60164BFF
:10043000BB60164A144BD31A7B6007E0BB685A1C9A
:10044000BA60FA68511CF96012781A707B685A1EFB
:100450007A60002BF2D10E4BBB600E4A0C4BD31AC4
:100460007B6004E0BB685A1CBA6000221A707B688B
:100470005A1E7A60002BF5D100F0E6F8C046BD4662
:1004800004B080BD6C1500080000002000000020B2
:10049000000000200800002080B500AFFEE7C04645
:1004A00080B582B000AF7860C0467B685A1E7A6023
:1004B000002BFAD1C046BD4602B080BD80B500AF6A
:1004C0000A4B0A4A126804210A431A60084B084A78
:1004D000126808490A401A60054B054A12688021D3
:1004E00049050A431A60C046BD4680BD2C10024033
:1004F00000080050FFFFFFDF80B500AF044B044A47
:100500001268802109020A431A60C046BD4680BDB8
:100510001404014080B500AF0D4B0D4A12680D491F
:100520000A401A600A4B0A4A126801210A431A60FB
:10053000C046074B1B6804221340FAD0064B064AFC
:10054000126801210A431A60C046BD4680BDC046FC
:1005500000100240FFFFFFFE0C10024080B5CCB03F
:1005600000AF0200364B982149008C46BC446344DE
:100570001A70344B982252009446BC446344722251
:100580001A70304B982252009446BC44634439227E
:100590005A702C4B982252009446BC44634401226A
:1005A000DA60284B982252009446BC4463440222ED
:1005B0001A61234B982252009446BC4463441B7832
:1005C000802252421343DAB21E4B982149008C46D6
:1005D000BC4463441A770C23FB181800FFF7D6FDC0
:1005E000184B982252009446BC4463449F229A5C64
:1005F00097235B00FB181A8097235B00FB18972258
:100600005200BA18128812021A800E4B9822520019
:100610009446BC4463449E229B5C99B297235B0042
:10062000FB1897225200BA1812888A181A8097234A
:100630005B00FB181B881800BD464CB080BDC0464F
:10064000D7FEFFFFDCFEFFFF80B586B000AFFFF7EF
:1006500061FFFFF733FFFFF72FFD62B600F03AFBB3
:1006600000F0CCFB504B1A000121052000F003FCE8
:100670000321802000F00CFD0021842000F008FD03
:100680000121852000F004FD0021822000F000FD02
:100690000021832000F0FCFC1121862000F0F8FCF2
:1006A000424B424A1268920092081A60404B404AFC
:1006B000126801210A431A603E4B3E4A12683E49C5
:1006C0000A401A603B4B3B4A1268802189010A4369
:1006D0001A603A4B394A1268802109020A431A60AB
:1006E000374B374A1268802109020A431A60354B9A
:1006F000344A126880210A431A600321C02000F0A6
:10070000C7FC3B1D43221A703B1D68225A703B1DDB
:1007100020229A703B1D3A22DA7030BF2A4B2A4AB7
:1007200012688021C9010A431A60284B1800FFF79C
:10073000B7FE254B244A126825490A401A60234B0C
:100740001800FFF7ADFE002000F008FD03001A00BE
:100750003B1D04331100180000F01BFC3B1D302230
:100760009A703B1D1A000321012000F084FB012038
:1007700000F0F4FC03001A003B1D043311001800C4
:1007800000F007FC3B1D31229A703B1D1A0004212A
:10079000012000F070FB0321C02000F079FC112142
:1007A000862000F075FCB8E78013000800080050B0
:1007B0003410024014000140FF0FFFFF0C04014001
:1007C0000004014000E100E0140800501027000080
:1007D000FFBFFFFF80B5CAB000AF02002A4B9420D4
:1007E00040008446BC4463441A70284B9422520053
:1007F0009446BC4463440A1C1A70254B9422520050
:100800009446BC44634477221A70214B94225200D0
:100810009446BC4463443D225A701D4B94225200BE
:100820009446BC4463440222DA60194B942252007D
:100830009446BC44634400221A61154B9422520032
:100840009446BC446344104A942149008C46BC44FD
:10085000624412781A770E4B942252009446BC449C
:1008600063440A4A942149008C46BC44624412788D
:100870005A770823FB181800FFF788FC0300DBB247
:100880001800BD464AB080BDDFFEFFFFDEFEFFFF61
:10089000E0FEFFFF80B5CAB000AF0200224B9421FA
:1008A00049008C46BC4463441A70204B9422520089
:1008B0009446BC44634472221A701C4B942252002A
:1008C0009446BC4463443D225A70184B9422520013
:1008D0009446BC4463440122DA60144B94225200D3
:1008E0009446BC44634401221A61104B9422520086
:1008F0009446BC4463440C4A942149008C46BC4451
:10090000624412781A770823FB181800FFF73EFCA0
:10091000064B942252009446BC4463449E229B5C46
:100920001800BD464AB080BDDFFEFFFFE0FEFFFFBE
:1009300080B5CAB000AF02002A4B94204000844624
:10094000BC4463441A70284B942252009446BC4421
:1009500063440A1C1A70254B942252009446BC44EE
:10096000634477221A70214B942252009446BC446F
:1009700063443C225A701D4B942252009446BC445E
:1009800063440222DA60194B942252009446BC441C
:10099000634400221A61154B942252009446BC44D1
:1009A0006344104A942149008C46BC446244127846
:1009B0001A770E4B942252009446BC4463440A4A70
:1009C000942149008C46BC44624412785A7708232B
:1009D000FB181800FFF7DAFB0300DBB21800BD4676
:1009E0004AB080BDDFFEFFFFDEFEFFFFE0FEFFFF3F
:1009F00080B5CAB000AF0200224B942149008C465A
:100A0000BC4463441A70204B942252009446BC4468
:100A1000634472221A701C4B942252009446BC44C8
:100A200063443C225A70184B942252009446BC44B2
:100A300063440122DA60144B942252009446BC4471
:100A4000634401221A61104B942252009446BC4424
:100A500063440C4A942149008C46BC446244127899
:100A60001A770823FB181800FFF790FB064B942217
:100A700052009446BC4463449E229B5C1800BD46D1
:100A80004AB080BDDFFEFFFFE0FEFFFF90B5CDB0B6
:100A900000AF040008001100444B98225200944615
:100AA000BC446344221C1A70414B98225200944665
:100AB000BC446344021C1A703E4B98225200944678
:100AC000BC4463440A1C1A703B4B98225200944663
:100AD000BC44634477221A70374B982252009446E4
:100AE000BC4463443C225A70314B982252009446D5
:100AF000BC4463441B7801331A002F4B98214900F2
:100B00008C46BC446344DA602B4B982252009446D6
:100B1000BC44634400221A61274B98225200944639
:100B2000BC446344214A982149008C46BC44624439
:100B300012781A77002396225200BA1813601CE02C
:100B400096235B00FB181B6801331B4A9821490060
:100B50008C46BC446244D318164A982149008C46FE
:100B6000BC44624412781A7796235B00FB181B681A
:100B7000013396225200BA1813600D4B982252008E
:100B80009446BC4463441A7896235B00FB181B68A8
:100B90009A42D5DC0C23FB181800FFF7F7FA030084
:100BA000DBB21800BD464DB090BDC046D7FEFFFF7A
:100BB000D6FEFFFFD5FEFFFFDCFEFFFF80B5CCB009
:100BC00000AF3A60404B982252009446BC446344C4
:100BD000021C1A703D4B982252009446BC44634458
:100BE0000A1C1A703A4B982252009446BC44634443
:100BF00077221A70364B982252009446BC446344C4
:100C00003C225A70314B982252009446BC446344B3
:100C10001B7801331A002E4B982149008C46BC44A6
:100C20006344DA602A4B982252009446BC446344E1
:100C300000221A61264B982252009446BC44634419
:100C4000214A982149008C46BC44624412781A77A4
:100C5000002396225200BA1813601DE096235B0011
:100C6000FB181B68013396225200BA1812683968C3
:100C70008A181178164A982040008446BC44624481
:100C8000D3180A1C1A7796235B00FB181B680133E4
:100C900096225200BA1813600C4B982252009446C8
:100CA000BC4463441A7896235B00FB181B689A4285
:100CB000D4DC0C23FB181800FFF768FA0300DBB242
:100CC0001800BD464CB080BDD7FEFFFFD6FEFFFF2B
:100CD000DCFEFFFF80B500AFAE210020FFF728FE4D
:100CE000D5210020FFF724FE80210020FFF720FE01
:100CF000A8210020FFF71CFE3F210020FFF718FE6F
:100D0000D3210020FFF714FE00210020FFF710FE82
:100D100040210020FFF70CFE8D210020FFF708FE88
:100D200014210020FFF704FE20210020FFF700FE21
:100D300000210020FFF7FCFDA1210020FFF7F8FDB6
:100D4000C8210020FFF7F4FDDA210020FFF7F0FDB5
:100D500012210020FFF7ECFD81210020FFF7E8FDC4
:100D6000CF210020FFF7E4FDD9210020FFF7E0FDAF
:100D7000F1210020FFF7DCFDDB210020FFF7D8FD8B
:100D800040210020FFF7D4FDA4210020FFF7D0FD73
:100D9000A6210020FFF7CCFD2E210020FFF7C8FD83
:100DA000AF210020FFF7C4FDC046BD4680BD80B521
:100DB00082B000AF786021210020FFF7B9FD00214B
:100DC0000020FFF7B5FD7F210020FFF7B1FD2221B4
:100DD0000020FFF7ADFD7B68DBB219000020FFF7B4
:100DE000A7FD07210020FFF7A3FD0022802140205E
:100DF000FFF74CFEC046BD4602B080BD80B582B054
:100E000000AF00237B6006E07B681800FFF7CFFF90
:100E10007B6801337B607B68072BF5DDC046BD46F0
:100E200002B080BD80B582B000AF7860396021210A
:100E30000020FFF77DFD00210020FFF779FD7F21D5
:100E40000020FFF775FD22210020FFF771FD7B6870
:100E5000DBB219000020FFF76BFD07210020FFF730
:100E600067FD3B681A0080214020FFF7A7FEC046BF
:100E7000BD4602B080BD80B5A6B000AFF860B960D5
:100E80007A6000239422BA1813600EE01423FA1833
:100E90009423FB181B68D31800221A709423FB18A4
:100EA0001B6801339422BA1813609423FB181B6843
:100EB0007F2BEBDD2EE000239422BA1813601EE096
:100EC000FA6813009B009A189423FB181B68D1182A
:100ED0007B681B78203B1A0013009B009A18942310
:100EE000FB181B68D318134AD25C1423FB185A54FE
:100EF0009423FB181B6801339422BA1813609423BF
:100F0000FB181B68042BDBDDFB680133FB607B688F
:100F100001337B607B681B78002BCCD11423FA183B
:100F2000BB6811001800FFF77DFFC046BD4626B024
:100F300080BDC0468C13000890B585B000AF7860C6
:100F400039607B680A3300221A700023FB6019E0C5
:100F5000FB680922D31A1A007B689C183B680A2197
:100F6000180000F007FA0B00DBB23033DBB223705D
:100F70003B680A21180000F077F903003B60FB682A
:100F80000133FB60FB68092BE2DDC046BD4605B0BE
:100F900090BD80B584B000AF786039607B6808335D
:100FA00000221A700023BB601CE03B680F22134034
:100FB000FB60FB68092B03DCFB683033FB6002E05D
:100FC000FB683733FB60BB680722D31A1A007B68C3
:100FD0009B18FA68D2B21A703B681B093B60BB6869
:100FE0000133BB60BB68072BDFDDC046BD4604B0E4
:100FF00080BDC04680B5CAB000AF0200224B94212C
:1010000049008C46BC4463441A70204B9422520021
:101010009446BC44634472221A701C4B94225200C2
:101020009446BC44634439225A70184B94225200AF
:101030009446BC4463440122DA60144B942252006B
:101040009446BC44634401221A61104B942252001E
:101050009446BC4463440C4A942149008C46BC44E9
:10106000624412781A770823FB181800FFF78EF8ED
:10107000064B942252009446BC4463449E229B5CDF
:101080001800BD464AB080BDDFFEFFFFE0FEFFFF57
:1010900080B5CAB000AF02002D4B942040008446BA
:1010A000BC4463441A702B4B942252009446BC44B7
:1010B00063440A1C1A70284B942252009446BC4484
:1010C000634477221A70244B942252009446BC4405
:1010D000634439225A70204B942252009446BC44F7
:1010E00063440222DA601C4B942252009446BC44B2
:1010F000634400221A61184B942252009446BC4467
:101100006344134A942149008C46BC4462441278DB
:101110001A77114B942252009446BC4463440D4A02
:10112000942149008C46BC44624412785A770823C3
:10113000FB181800FFF72AF8074B94225200944638
:10114000BC4463449E229B5C1800BD464AB080BDEF
:10115000DFFEFFFFDEFEFFFFE0FEFFFF80B5CCB04D
:1011600000AF02003E4B982149008C46BC446344CA
:101170001A703C4B982252009446BC44634472223D
:101180001A70384B982252009446BC44634439226A
:101190005A70344B982252009446BC446344012256
:1011A000DA60304B982252009446BC4463440222D9
:1011B0001A612B4B982252009446BC4463441B781E
:1011C000002B07D1274B982252009446BC4463441D
:1011D0008C221A77224B982252009446BC446344D6
:1011E0001B78012B07D11F4B982252009446BC4418
:1011F00063448E221A770C23FB181800FEF7C6FFF3
:10120000184B982252009446BC4463449F229A5C37
:1012100097235B00FB181A8097235B00FB1897222B
:101220005200BA18128812021A800E4B98225200ED
:101230009446BC4463449E229B5C99B297235B0016
:10124000FB1897225200BA1812888A181A8097231E
:101250005B00FB181B881800BD464CB080BDC04623
:10126000D7FEFFFFDCFEFFFF002243088B4274D352
:1012700003098B425FD3030A8B4244D3030B8B4297
:1012800028D3030C8B420DD3FF22090212BA030CA0
:101290008B4202D31212090265D0030B8B4219D381
:1012A00000E0090AC30B8B4201D3CB03C01A5241A1
:1012B000830B8B4201D38B03C01A5241430B8B42E9
:1012C00001D34B03C01A5241030B8B4201D30B03D2
:1012D000C01A5241C30A8B4201D3CB02C01A5241F9
:1012E000830A8B4201D38B02C01A5241430A8B42BC
:1012F00001D34B02C01A5241030A8B4201D30B02A5
:10130000C01A5241CDD2C3098B4201D3CB01C01ABE
:10131000524183098B4201D38B01C01A52414309C8
:101320008B4201D34B01C01A524103098B4201D3B6
:101330000B01C01A5241C3088B4201D3CB00C01A23
:10134000524183088B4201D38B00C01A524143089B
:101350008B4201D34B00C01A5241411A00D20146C0
:10136000524110467047FFE701B5002000F006F833
:1013700002BDC0460029F7D076E770477047C046E7
:101380004C6967687420646174612000000000008B
:101390000000005F00000007000700147F147F14A6
:1013A000242A7F2A122313086462364955225000EA
:1013B00005030000001C2241000041221C00082AF5
:1013C0001C2A0808083E08080050300000080808D9
:1013D0000808006060000020100804023E514945E2
:1013E0003E00427F400042615149462141454B3118
:1013F0001814127F1027454545393C4A49493001A8
:10140000710905033649494936064949291E0036FE
:10141000360000005636000000081422411414144F
:10142000141441221408000201510906324979417D
:101430003E7E1111117E7F494949363E414141228C
:101440007F4141221C7F494949417F090901013EF1
:10145000414151327F0808087F00417F4100204010
:10146000413F017F081422417F404040407F0204F9
:10147000027F7F0408107F3E4141413E7F090909F8
:10148000063E4151215E7F091929464649494931A5
:1014900001017F01013F4040403F1F2040201F7F4E
:1014A0002018207F63140814630304780403615137
:1014B00049454300007F4141020408102041417F1B
:1014C00000000402010204404040404000010204C8
:1014D0000020545454787F484444383844444420CD
:1014E000384444487F3854545418087E090102088F
:1014F0001454543C7F0804047800447D400020408C
:10150000443D00007F10284400417F40007C0418C7
:1015100004787C0804047838444444387C14141457
:1015200008081414187C7C080404084854545420F7
:10153000043F4440203C4040207C1C2040201C3C78
:101540004030403C44281028440C5050503C4464E7
:10155000544C44000836410000007F000000413632
:0C156000080008082A1C08081C2A0808BB
:0400000508000000EF
:00000001FF
