:020000040800F2
:1000000000200020B90000082D0100082D01000883
:100010002D0100082D0100082D0100082D01000808
:100020002D0100082D0100082D0100082D010008F8
:100030002D0100082D0100082D0100082D010008E8
:100040002D0100082D0100082D0100082D010008D8
:100050002D0100082D0100082D0100082D010008C8
:100060002D0100082D0100082D0100082D010008B8
:100070002D0100082D0100082D0100082D010008A8
:100080002D0100082D0100082D0100082D01000898
:100090002D0100082D0100082D0100082D01000888
:1000A0002D0100082D0100082D0100082D01000878
:1000B0002D0100082D01000880B584B000AF164B5B
:1000C000FB60164BBB60164A144BD31A7B6007E0EB
:1000D000BB685A1CBA60FA68511CF96012781A7031
:1000E0007B685A1E7A60002BF2D10E4BBB600E4A21
:1000F0000C4BD31A7B6004E0BB685A1CBA60002228
:100100001A707B685A1E7A60002BF5D100F0A6F9B0
:10011000C046BD4604B080BDC404000800000020F5
:1001200000000020000000201400002080B500AF77
:10013000FEE7C04680B582B000AF7860C0467B68FD
:100140005A1E7A60002BFAD1C046BD4602B080BD6F
:1001500080B500AF0D4B0D4A12680D490A401A6078
:100160000A4B0A4A126801210A431A60C046074B2B
:100170001B6804221340FAD0044B044AD2680121C0
:100180000A43DA60C046BD4680BDC046001002404A
:10019000FFFFFFFE80B500AF0A4B0A4AD26A022178
:1001A0000A43DA62084B084A126880218A431A60BF
:1001B000054B054A126840210A431A60C046BD46F5
:1001C00080BDC046001002400004005080B500AF62
:1001D0001D4B1D4AD26A02210A43DA621A4B1A4A9F
:1001E000526B802149010A435A63184B174A12681F
:1001F00017490A401A60154B144A126880210901F8
:100200000A431A60114B114A126A12490A401A62D3
:10021000114B00221A60104B0F4A12680F490A4313
:100220001A600D4B1B681A000D4B1A600A4B0A4AE4
:10023000126840210A431A60074B1B681A00084BDA
:100240001A60C046BD4680BD001002400004005048
:10025000FFFBFFFFFFFF0FFF003001401503000011
:100260001000002080B582B000AF0200FB1D1A70A4
:100270000B4BFA1D1278DA60C046094B9B680222CC
:100280001340FAD0064B9B680122134003D0044B65
:10029000DB68DBB200E000231800BD4602B080BD81
:1002A0000030014080B588B000AF786000237B61EA
:1002B0000023FB610023FB613CE07A6880231B0480
:1002C000134006D00823FA18FB69D318E0221A70ED
:1002D00005E00823FA18FB69D31880221A707B689E
:1002E0005B007B607A6880231B0413400ED00823D8
:1002F000FA18FB69D3181B780E221343D9B20823CE
:10030000FA18FB69D3180A1C1A700DE00823FA18B2
:10031000FB69D3181B7808221343D9B20823FA18B3
:10032000FB69D3180A1C1A707B685B007B60FB6951
:100330000133FB61FB690B2BBFDD0023BB610AE0CE
:100340000823FA18BB69D3181B781800FFF78AFF37
:10035000BB690133BB61BB690B2BF1DDC046BD46F8
:1003600008B080BD80B500AF374B1B68052B5DD84A
:100370009A00364BD3181B689F46354B1B685A1C96
:10038000334B1A60324B1B68FF2B44D12E4B01229A
:100390001A6040E02F4B1B685A1C2E4B1A602D4BE5
:1003A0001B68FF2B39D1284B02221A6035E02A4BFB
:1003B0001B685A1C284B1A60274B1B68FF2B2ED139
:1003C000214B03221A602AE0214B1B685A1E204B46
:1003D0001A601F4B1B68002B23D11B4B04221A6091
:1003E0001FE01C4B1B685A1E1A4B1A60194B1B68E6
:1003F000002B18D1144B05221A6014E0164B1B6811
:100400005A1E154B1A60144B1B68002B0DD10E4B56
:1004100000221A6009E0C04608E0C04606E0C04677
:1004200004E0C04602E0C04600E0C046084B1B683E
:100430001A04084B1B681B02D218074B1B68D31801
:100440001800BD4680BDC04600000020AC04000876
:1004500004000020080000200C00002080B500AF40
:10046000FFF776FEFFF796FEFFF7B0FEFFF77AFF85
:1004700003001800FFF716FF0A4B0A4A52690821C9
:100480000A435A61084B1800FFF754FE054B054A12
:10049000526908218A435A61034B1800FFF74AFE4C
:0C04A000E4E7C04600040050A086010004
:1004AC007A03000894030008AE030008C803000890
:0804BC00E2030008FC03000844
:0400000508000000EF
:00000001FF
