:020000040800F2
:1000000000200020B90000082D0100082D01000883
:100010002D0100082D0100082D0100082D01000808
:100020002D0100082D0100082D0100082D010008F8
:100030002D0100082D0100082D0100082D010008E8
:100040002D0100082D0100082D0100082D010008D8
:100050002D0100082D0100082D0100082D010008C8
:100060002D0100082D0100082D0100082D010008B8
:100070002D0100082D0100082D0100082D010008A8
:100080002D0100082D0100082D0100082D01000898
:100090002D0100082D0100082D0100082D01000888
:1000A0002D0100082D0100082D0100082D01000878
:1000B0002D0100082D01000880B584B000AF164B5B
:1000C000FB60164BBB60164A144BD31A7B6007E0EB
:1000D000FA68531CFB60BB68591CB96012781A702F
:1000E0007B685A1E7A60002BF2D10E4BBB600E4A21
:1000F0000C4BD31A7B6004E0BB685A1CBA60002228
:100100001A707B685A1E7A60002BF5D100F0C4F893
:10011000C046BD4604B080BDE802000800000020D3
:1001200000000020000000200000002080B500AF8B
:10013000FEE7C04680B582B000AF7860C0467B68FD
:100140005A1E7A60002BFAD1C046BD4602B080BD6F
:1001500080B500AF0D4B1A680C4B0D490A401A6070
:100160000A4B1A68094B01210A431A60C046074B23
:100170001B6804221340FAD0044BDA68034B0121B8
:100180000A43DA60C046BD4680BDC046001002404A
:10019000FFFFFFFE80B500AF0A4BDA6A094B04216E
:1001A0000A43DA62084B1A68074B08490A401A608A
:1001B000054B1A68044B802149050A431A60C04662
:1001C000BD4680BD0010024000080050FFFFFFDF69
:1001D00080B500AF1B4BDA6A1A4B01210A43DA6281
:1001E000184B5A6B174B802149010A435A63A023CD
:1001F000DB051A68A023DB0513490A401A60A02317
:10020000DB051A68A023DB05882109020A431A606E
:10021000A023DB051A6AA023DB050C490A401A62F9
:100220000B4B00221A600A4B1A68094B09490A4312
:100230001A60074B1A68064B40210A431A60C046F1
:10024000BD4680BD00100240FFBBFFFFFFFF0F0F48
:10025000003001401503000080B582B000AF0200FD
:10026000FB1D1A700B4BFA1D1278DA60C046094B61
:100270009B6802221340FAD0064B9B680122134070
:1002800003D0044BDB68DBB200E000231800BD465E
:1002900002B080BD0030014080B500AFFFF758FFCD
:1002A000FFF778FFFFF794FF2A20FFF7D5FF0B4BEE
:1002B0005A690A4B8021C9010A435A61084B180048
:1002C000FFF738FF054B5A69044B06490A405A614B
:1002D000034B1800FFF72EFFE6E7C046000800506A
:0802E000A0860100FFBFFFFF33
:0400000508000000EF
:00000001FF
