:020000040800F2
:100000000020002075120008F9120008F9120008FB
:10001000F9120008F9120008F9120008F912000894
:10002000F9120008F9120008F9120008F912000884
:10003000F9120008F9120008F9120008ED1500087D
:10004000F9120008F9120008F9120008F912000864
:10005000F9120008F9120008F9120008F912000854
:10006000F9120008F9120008F9120008F912000844
:10007000F9120008F9120008F9120008F912000834
:10008000F9120008F9120008F9120008F912000824
:10009000F9120008F9120008F9120008F912000814
:1000A000F9120008F9120008F9120008F912000804
:1000B000F9120008F912000880B588B002AF786024
:1000C0003960794BDA6A784B01210A43DA62A0235E
:1000D000DB051A68A023DB0574490A401A60A023D7
:1000E000DB051A68A023DB0571490A431A60A023C7
:1000F000DB051A6AA023DB056E490A401A62A023B9
:10010000DB059A68A023DB05CC2109020A439A602B
:10011000654B5A6B644B802149010A435A63664B15
:100120009B683B61644B654A1A60634B644A5A6042
:10013000614B1B68FB60604B5B68FB60A023DB05C9
:100140001B68FB60A023DB051B6AFB6000237B614F
:100150007B691F2B0ADC7B680021180000F0B2F8D5
:1001600003003B617B6901337B61F1E77B68180029
:1001700000F036FA7B68180000F03AF93B68192164
:10018000180001F018FA7B68180000F01EF93B68AF
:100190001921180001F00FFA7B68180000F028F907
:1001A0003B681921180001F006FA7B68180000F07E
:1001B0001FF93B681921180001F0FDF97B68180050
:1001C00000F003F93B681921180001F0F4F97B688D
:1001D000180000F00DF93B681921180001F0EBF947
:1001E0007B680121180000F01DFA3B689621180079
:1001F00001F0E1F97B681121180000F013FA3B6867
:100200001921180001F0D7F97B683A21180000F095
:1002100009FA7B685521180000F01AFA3B68192189
:10022000180001F0C8F97B683621180000F0FAF9CF
:100230007B686821180000F00BFA3B681921180050
:1002400001F0B9F97B685121180000F0EBF93B6827
:100250001921180001F0AFF97B682121180000F086
:10026000E1F97B681321180000F0DCF97B68292193
:10027000180000F0D7F93B681921180001F09BF92C
:100280007B682C21180000F0CDF9786800230193D9
:1002900086230093EF230022002100F054F900236D
:1002A0001800BD4606B080BD00100240FF00C3FF2D
:1002B000009A1400FFFF000F0030014046030000C9
:1002C0000407000080B584B000AF78600A00FB1C12
:1002D0001A706423FB600D4AFB1C1B7813700C4BD7
:1002E0009B688022134006D0FB685A1EFA60002BE0
:1002F00001D0012300E00023002B00D0EFE7034BE7
:100300001B781800BD4604B080BDC0460C300140CB
:100310000030014080B584B000AF78600A00BB1C9B
:100320001A806423FB60BB1C1A88184BFF210A400B
:10033000DA60164B9B688022134006D0FB685A1E79
:10034000FA60002B01D0012300E00023002B00D035
:10035000EFE7BB1C1B881A120C4BDA600B4B9B6837
:100360008022134006D0FB685A1EFA60002B01D091
:10037000012300E00023002B00D0EFE7034BDB68F4
:100380009BB21800BD4604B080BDC046003001409D
:1003900080B582B000AF7860A023DB058022D20355
:1003A0009A61C046C046C046BD4602B080BD80B519
:1003B00082B000AF7860A023DB0540229A61C0467E
:1003C000C046C046BD4602B080BD80B582B000AF19
:1003D0007860A023DB055A69A023DB0503490A40A6
:1003E0005A61C046BD4602B080BDC046FFFDFFFF5A
:1003F00080B582B000AF7860A023DB055A69A023E6
:10040000DB05802189000A435A61C046BD4602B01F
:1004100080BDF0B585B000AFF8600C001000190089
:100420000A257B19221C1A800826BB19021C1A8077
:10043000BB1D0A1C1A802C003B193A19128828325D
:100440001A80BB1DBA1D128828321A8035007B190C
:100450007A19128835321A8020260822BB189B1977
:10046000B9188A19128835321A80FB681800FFF70C
:100470008FFFFB682A211800FFF724FFFB68180094
:10048000FFF795FF3B191B881B12DAB2FB681100BE
:100490001800FFF717FF3B191B88DAB2FB68110041
:1004A0001800FFF70FFFBB1D1B881B12DAB2FB6899
:1004B00011001800FFF706FFBB1D1B88DAB2FB68AE
:1004C00011001800FFF7FEFEFB681800FFF760FF41
:1004D000FB682B211800FFF7F5FEFB681800FFF7FB
:1004E00066FF7B191B881B12DAB2FB68110018002B
:1004F000FFF7E8FE7B191B88DAB2FB6811001800D1
:10050000FFF7E0FE08243B199B191B881B12DAB287
:10051000FB6811001800FFF7D5FE3B199B191B88DB
:10052000DAB2FB6811001800FFF7CCFEFB68180078
:10053000FFF72EFFFB682C211800FFF7C3FEC04613
:10054000BD4605B0F0BDB0B588B002AFF8600C0094
:10055000100019000A257B19221C1A8008243B1957
:10056000021C1A80BB1D0A1C1A8028203B181B88FD
:10057000BA1D128853437B6129007A18BB1D12886B
:100580001B88D3189BB2013B9DB23A193B181288C5
:100590001B88D3189BB2013B9BB23A1914887A1876
:1005A0001188F86800932B002200FFF732FFFB68E8
:1005B0001800FFF7FCFE7B695A1E7A615A1E9341B0
:1005C000DBB2002B08D02C23FB181A88FB68110023
:1005D0001800FFF79FFEEEE7C046BD4606B0B0BD6F
:1005E00080B582B000AF7860A023DB059A69A023B4
:1005F000DB058021C9000A439A61C046BD4602B0AE
:1006000080BD80B582B000AF7860A023DB059A6919
:10061000A023DB058021C9040A439A61C046BD4678
:1006200002B080BD80B582B000AF78600A00FB1CCC
:100630001A707B681800FFF7ABFEFB1C1A787B680A
:1006400011001800FFF73EFEC046BD4602B080BD57
:1006500080B582B000AF78600A00FB1C1A707B681E
:100660001800FFF7A4FEFB1C1A787B681100180025
:10067000FFF728FEC046BD4602B080BD80B582B0FF
:1006800000AF78600A00BB1C1A807B681800FFF777
:100690008EFEBB1C1A887B6811001800FFF73AFE1B
:1006A000C046BD4602B080BDB0B586B002AFF860AE
:1006B0000C00100019000A257B19221C1A8008243E
:1006C0003B19021C1A80BB1D0A1C1A8029007B18CA
:1006D0001B8801339DB23B191B8801339BB23A1929
:1006E00014887A181188F86800932B002200FFF70D
:1006F00090FEBB1D1A88FB6811001800FFF7BEFFB3
:10070000C046BD4604B0B0BDB0B58AB000AFF86019
:100710000C00100019000A257B19221C1A800824DD
:100720003B19021C1A80BB1D0A1C1A80BB1D1A88AB
:100730007B191B88D31A3B613823FB181A883B1995
:100740001B88D31A7B6201233B627B6A002B05DA8C
:1007500001235B423B627B6A5B427B627B6A5A009D
:100760003B69D31AFB610823FB181B88BB610A2372
:10077000FB181B887B61BB1D1B887A699A421EDCB3
:100780007B6999B2BB699AB23C23FB181B88F86855
:10079000FFF78AFFFB69002B08DDBA693B6AD318B3
:1007A000BB613B695B00FA69D31AFB617B6A5B0042
:1007B000FA69D318FB617B6901337B61DBE7C046D3
:1007C000BD460AB0B0BDB0B58AB000AFF8600C004D
:1007D000100019000A257B19221C1A8008243B19D5
:1007E000021C1A80BB1D0A1C1A80BB1D1A887B19AB
:1007F0001B88D31A7B623823FB181A883B191B8885
:10080000D31A3B6101233B627B6A002B05DA01238B
:100810005B423B627B6A5B427B627B6A5A003B695C
:10082000D31AFB610A23FB181B88BB610823FB1842
:100830001B887B613823FB181B887A699A421EDC6F
:10084000BB6999B27B699AB23C23FB181B88F86894
:10085000FFF72AFFFB69002B08DDBA693B6AD31852
:10086000BB613B695B00FA69D31AFB617B6A5B0081
:10087000FA69D318FB617B6901337B61DAE7C04613
:10088000BD460AB0B0BDB0B586B002AFF8600C008E
:10089000100019000A257B19221C1A8008243B1914
:1008A000021C1A80BB1D0A1C1A802023FB181A8800
:1008B0003B191B88D21AFB681100180000F048FF92
:1008C0000400BB1D1A887B191B88D21AFB68110013
:1008D000180000F03DFF030001229C4201DB0023D1
:1008E0001A1CD3B2002B2FD00A217A18BB1D1288F4
:1008F0001B889A4213D97B181C882023FB181A885E
:10090000BB1D1988F8682423FB181B880193082352
:10091000FB181B8800932300FFF7F6FE43E0BB1D86
:100920001C880823FB181A880A23FB181988F86802
:100930002423FB181B8801932023FB181B8800939A
:100940002300FFF7E1FE2EE008257A1920217B180D
:1009500012881B889A4212D90A23FB181C887B181C
:100960001A88BB1D1988F8682423FB181B8801937B
:100970007B191B8800932300FFF725FF13E0BB1DA5
:100980001C880823FB181A880A23FB181988F868A2
:100990002423FB181B8801932023FB181B8800933A
:1009A0002300FFF710FFC046BD4604B0B0BDF0B550
:1009B000C64600B586B002AFF8600C001000190002
:1009C0000A257B19221C1A800826BB19021C1A80D2
:1009D000BB1D0A1C1A807A19BB1D12881B88D318EC
:1009E0009CB2BB191B8898467B191988F868242388
:1009F00008229446BC4463441B880193BB191B889E
:100A0000009323004246FFF73EFF3100BA19202031
:100A10000823FC18231812881B88D3189BB22E00B9
:100A2000BA1915887A181488BA1912889046F86885
:100A3000242208218C46BC4462441288019200930F
:100A40002B0022004146FFF71EFFBA19BB1D12887A
:100A50001B88D3189BB29846BA19BB1D12881B88F5
:100A6000D3189DB208203A1820240823F9180B192E
:100A700012881B88D3189BB23A181488F86824226D
:100A800008218C46BC4462441288019200932B00DA
:100A900022004146FFF7F7FE08217A18202008239C
:100AA000FC18231812881B88D3189CB2BA19BB1DD6
:100AB00012881B88D3189DB27A180823FB181B18BC
:100AC00012881B88D3189BB2BA191188F86824229F
:100AD0000826B446BC4462441288019200932B005D
:100AE0002200FFF7D0FEC046BD4604B004BC9046CD
:100AF000F0BDF0B58BB000AFF8600C00100019002D
:100B00000A257B19221C1A8008243B19021C1A8012
:100B1000BB1D0A1C1A80BB1D1B88013B7B62002386
:100B20003B620123FB610123BB61BB1D1B885B0092
:100B3000FA69D31A7B61BA1D7B1912881B889A4205
:100B400000D9D6E0BA1D3B1912881B889A4200D9F9
:100B5000D1E07B191A88BB1D1B88D318F02B00DD50
:100B6000CBE03B191A88BB1D1B88D318872B00DDEF
:100B7000C5E07A6A3B6A9A4200DAC1E07B6A9AB2BF
:100B80000A243B191B88D31899B23B6A9AB20825EC
:100B90007B191B88D3189AB238260823F8188319B2
:100BA0001B88F868FFF780FD3B6A9AB23B191B88E7
:100BB000D31899B27B6A9AB27B191B88D3189AB260
:100BC0000823F81883191B88F868FFF76DFD3B6A46
:100BD0009BB23A191288D31A99B27B6A9AB27B19DE
:100BE0001B88D3189AB20823F81883191B88F86851
:100BF000FFF75AFD7B6A9BB23A191288D31A99B251
:100C00003B6A9AB27B191B88D3189AB20823F8184A
:100C100083191B88F868FFF747FD7B6A9BB23A1976
:100C20001288D31A99B23B6A9BB27A191288D31AE6
:100C30009AB20823F81883191B88F868FFF734FD67
:100C40003B6A9BB23A191288D31A99B27B6A9BB25B
:100C50007A191288D31A9AB20823F81883191B88B4
:100C6000F868FFF721FD3B6A9AB23B191B88D3183D
:100C700099B27B6A9BB27A191288D31A9AB2082366
:100C8000F81883191B88F868FFF70EFD7B6A9AB283
:100C90003B191B88D31899B23B6A9BB27A19128808
:100CA000D31A9AB20823FB189B191B88F868FFF720
:100CB000FBFC7B69002B09DC3B6A01333B627A69F0
:100CC000BB69D3187B61BB690233BB617B69002BB5
:100CD00000DC4EE77B6A013B7B62FB690233FB6110
:100CE000BB1D1B885B00FA69D31A7A69D3187B6134
:100CF0003FE7C04604E0C04602E0C04600E0C04610
:100D0000BD460BB0F0BDF0B5C64600B58CB002AF25
:100D1000F8600C00100019000A257B19221C1A80AB
:100D200008243B19021C1A80BB1D0A1C1A80BB1D1B
:100D30001B88013B7B6200233B620123FB61012393
:100D4000BB61BB1D1B885B00FA69D31A7B61BA1DAE
:100D50007B1912881B889A4200D9DAE0BA1D3B1928
:100D600012881B889A4200D9D5E07B191A88BB1DCE
:100D70001B88D318F02B00DDCFE03B191A88BB1D70
:100D80001B88D318872B00DDC9E07A6A3B6A9A4238
:100D900000DAC5E07B6A9BB20A26BA191288D31A18
:100DA00099B23B6A9AB208203B181B88D3189CB2B0
:100DB0007B6A9AB2BB191B88D3189DB23B6A9AB260
:100DC0003B181B88D3189BB29846F8683823082232
:100DD0009446BC4463441B880193434600932B0014
:100DE0002200FFF750FD3B6A9BB2BA191288D31A52
:100DF00099B27B6A9AB208203B181B88D3189CB220
:100E00003B6A9AB2BB191B88D3189DB27B6A9AB20F
:100E10003B181B88D3189BB29846F86838230822E1
:100E20009446BC4463441B880193434600932B00C3
:100E30002200FFF728FD7B6A9BB2BA191288D31AE9
:100E400099B23B6A9BB208203A181288D31A9CB216
:100E50007B6A9AB2BB191B88D3189DB23B6A9BB2BE
:100E60003A181288D31A9BB29846F8683823082299
:100E70009446BC4463441B880193434600932B0073
:100E80002200FFF700FD3B6A9BB2BA191288D31A01
:100E900099B27B6A9BB208203A181288D31A9CB286
:100EA0003B6A9AB2BB191B88D3189DB27B6A9BB26E
:100EB0003A181288D31A9AB2F86838230826B4462A
:100EC000BC4463441B88019300922B002200FFF76F
:100ED000DAFC7B69002B09DC3B6A01333B627A69EF
:100EE000BB69D3187B61BB690233BB617B69002B93
:100EF00000DC4AE77B6A013B7B62FB690233FB61F2
:100F0000BB1D1B885B00FA69D31A7A69D3187B6111
:100F10003BE7C04604E0C04602E0C04600E0C046F1
:100F2000BD460AB004BC9046F0BDF0B589B002AF32
:100F3000F8600C00100019000A257B19221C1A8089
:100F400008243B19021C1A80BB1D0A1C1A802900A8
:100F50007A18BB1D12881B88D3189BB2013B9DB227
:100F60003A19282308208446BC44634412881B880D
:100F7000D3189BB2013B9BB226003A1914887A1809
:100F80001188F86800932B002200FFF742FAFB68F3
:100F90001800FFF70CFABB1900221A800823FA1870
:100FA000282308218C46BC44634412881B889A423B
:100FB00025D20A23FB1800221A800A243A19BB1DE5
:100FC00012881B889A4213D27B6B9A1C7A63162173
:100FD0007A181B8813807B181A88FB681100180088
:100FE000FFF798F93B191A883B1901321A80E4E798
:100FF00008217B181A887B1801321A80CEE7C04678
:10100000BD4607B0F0BD80B59AB002AFF860B960D8
:101010001900BB1D1A803B1D0A1C1A805F217B181A
:1010200000221A700023BB657B1800221A705F2112
:101030007B181A78BB1D1B889A4200DB75E07B1871
:101040001B78BA68D3181B78203B1A0013009B004A
:101050009A18384BD318BB655D23FB1800221A7011
:101060005D23FB181B78042B45D85E23FB18002258
:101070001A705E217B181B78062B35D85D203B1833
:101080001B78BA6DD3181B781A007B181B781A418D
:101090001300012213400FD07B181A7813009B0015
:1010A0009A183B181B78D2181023FB1852006C2199
:1010B00079180988D15210E05E23FB181A781300C2
:1010C0009B009A185D23FB181B78D2181023FB187D
:1010D0005200702179180988D1525E217B181A7844
:1010E0007B1801321A70C4E75D217B181A787B18CF
:1010F00001321A70B4E76823FB181A883B1D19885F
:10110000F8681023FB180193072300930523FFF7CA
:101110000CFF3B1D3A1D128807321A805F217B1895
:101120001A787B1801321A7081E7C046BD4618B0A4
:1011300080BDC04694170008F0B58BB004AFF860CE
:101140000C00100019000A257B19221C1A800823A4
:10115000FB18021C1A80BB1D0A1C1A802C003B19AC
:101160001B880A21180000F0EDFA0B009BB2DBB2DD
:101170003033DAB21026BB191A7125007C197B199D
:101180001B880A21180000F057FA030023802C0066
:101190003B191B880A21180000F0D4FA0B009BB2FF
:1011A000DBB23033DAB2BB19DA7025007C197B1957
:1011B0001B880A21180000F03FFA030023802C004E
:1011C0003B191B880A21180000F0BCFA0B009BB2E7
:1011D000DBB23033DAB2BB199A7025007C197B1967
:1011E0001B880A21180000F027FA030023802C0036
:1011F0003B191B880A21180000F0A4FA0B009BB2CF
:10120000DBB23033DAB2BB195A7025007C197B1976
:101210001B880A21180000F00FFA030023807B19B5
:101220001B880A21180000F08DFA0B009BB2DBB27C
:101230003033DAB2BB191A700823FB181A88B919AF
:10124000F8682C230824A446BC4463441B880293FA
:1012500028230824A446BC4463441B880193BB1D77
:101260001B88009313000522FFF7CDFEC046BD4644
:1012700007B0F0BD80B584B000AF1A4BFB601A4BCD
:10128000BB601A4A184BD31A7B607B685A1E7A607F
:101290005A1E9341DBB2002B09D0FB685A1CFA603E
:1012A0001978BB685A1CBA600A1C1A70EDE7104B1B
:1012B000BB60104A0E4BD31A7B607B685A1E7A6063
:1012C0005A1E9341DBB2002B05D0BB685A1CBA6092
:1012D00000221A70F1E700F077F8C046BD4604B06E
:1012E00080BDC046801900080000002000000020DA
:1012F000000000203000002080B500AFFEE7C046AF
:1013000080B582B000AF78607B685A1E7A605A1E42
:101310009341DBB2002B00D0F6E7C046BD4602B0D9
:1013200080BD80B500AF0F4B1A680E4B0E490A40C6
:101330001A600C4B1A680B4B01210A431A60094BC7
:101340001B68042213405A425341DBB2002B00D0E9
:10135000F5E7044BDA68034B01210A43DA60C04623
:10136000BD4680BD00100240FFFFFFFE80B500AF0C
:10137000FFF7D7FF0F4BDA6A0E4B04210A43DA62FC
:101380000D4B1A680C4B802149050A431A600A4B21
:101390001A68094B09490A401A60094B180000F005
:1013A0009BF8074A074B11001800FEF785FEC04660
:1013B000BD4680BD0010024000080050FFFFFFDF67
:1013C000040000202400002080B586B004AFBB1DBF
:1013D00000221A80FFF7CAFF2448254B0193862379
:1013E0000093EF2300220021FFF7E1FA21491F4873
:1013F000002302931E4B01930A2300930A230B221E
:10140000FFF701FE1948F8231B0201930A230093FA
:101410000A2332223221FFF7CAFA1448164B0193ED
:101420000A2300930A2332224621FFF78CF80F4843
:10143000124B00930A2346226421FFF75AFB0B4804
:101440001F2300930A2346228221FFF75CFCBB1D69
:101450001988BB1D4A1C1A80044800230193084BBD
:10146000009319230A22FFF767FEF0E7240000200B
:10147000FFFF000074190008E10F00001FF80000D2
:10148000FF07000080B582B000AF786039607B68EC
:10149000012B0BD13B68074A934207D1064B18003A
:1014A00000F066F9054B180000F06BF9C046BD4628
:1014B00002B080BDFFFF00000400002024000020D7
:1014C00080B500AF034B19000120FFF7DBFFBD46DD
:1014D00080BDC046FFFF000080B584B000AF7860DB
:1014E000104B7A681A600023FB60FB68072B08DC4E
:1014F0007B68FA6892000021D150FB680133FB60E1
:10150000F3E7094B1A68084B07210A431A60064B98
:10151000064A5A60044B05229A6062B6C046BD4630
:1015200004B080BD2800002010E000E07F3E0000F5
:1015300080B584B000AF786039600023FB60FB6841
:10154000072B10DC7B68FA689200D358002B06D179
:101550007B68FA6892003968D150002305E0FB6887
:101560000133FB60EBE701235B421800BD4604B08A
:1015700080BD80B584B000AF786039600023FB6027
:10158000FB68072B11DC7B68FA689200D3583A6835
:101590009A4206D17B68FA6892000021D15000235C
:1015A00005E0FB680133FB60EAE701235B421800BA
:1015B000BD4604B080BD80B582B000AF78603960B0
:1015C0003B68002B0CD0084B00221A60064B1A68AF
:1015D0003B689A429B415B42DBB2002B00D0F5E7AF
:1015E000C046BD4602B080BD2C00002080B582B050
:1015F00000AF0F4B1B685A1C0D4B1A6000237B6019
:101600007B68072B10DC0B4B1B687A689200D35861
:10161000002B05D0074B1B687A689200D358984777
:101620007B6801337B60EBE7C046BD4602B080BDFE
:101630002C00002028000020002243088B4274D395
:1016400003098B425FD3030A8B4244D3030B8B42C3
:1016500028D3030C8B420DD3FF22090212BA030CCC
:101660008B4202D31212090265D0030B8B4219D3AD
:1016700000E0090AC30B8B4201D3CB03C01A5241CD
:10168000830B8B4201D38B03C01A5241430B8B4215
:1016900001D34B03C01A5241030B8B4201D30B03FE
:1016A000C01A5241C30A8B4201D3CB02C01A524125
:1016B000830A8B4201D38B02C01A5241430A8B42E8
:1016C00001D34B02C01A5241030A8B4201D30B02D1
:1016D000C01A5241CDD2C3098B4201D3CB01C01AEB
:1016E000524183098B4201D38B01C01A52414309F5
:1016F0008B4201D34B01C01A524103098B4201D3E3
:101700000B01C01A5241C3088B4201D3CB00C01A4F
:10171000524183088B4201D38B00C01A52414308C7
:101720008B4201D34B00C01A5241411A00D20146EC
:10173000524110467047FFE701B5002000F006F85F
:1017400002BDC0460029F7D076E770477047C04613
:1017500080B582B000AF786039603B68002B02DA58
:101760003B685B4200E03B681800BD4602B080BDAC
:1017700080B582B000AF78607B681800BD4602B0CB
:0217800080BD2A
:1017820080B582B000AF78607B681800BD4602B0B9
:0217920080BD18
:10179400000000000000005F0000000700070014C4
:1017A4007F147F14242A7F2A122313086462364983
:1017B4005522500005030000001C22410000412274
:1017C4001C00082A1C2A0808083E0808005030009B
:1017D40000080808080800606000002010080402DF
:1017E4003E5149453E00427F4000426151494621F5
:1017F40041454B311814127F1027454545393C4A61
:1018040049493001710905033649494936064949B0
:10181400291E003636000000563600000008142247
:10182400411414141414412214080002015109062D
:10183400324979413E7E1111117E7F494949363E34
:10184400414141227F4141221C7F494949417F094D
:101854000901013E414151327F0808087F00417F60
:1018640041002040413F017F081422417F40404015
:10187400407F0204027F7F0408107F3E4141413EC5
:101884007F090909063E4151215E7F09192946460F
:101894004949493101017F01013F4040403F1F2038
:1018A40040201F7F2018207F6314081463030478EA
:1018B4000403615149454300007F4141020408107B
:1018C4002041417F000004020102044040404040A6
:1018D400000102040020545454787F4844443838AA
:1018E40044444420384444487F3854545418087EAF
:1018F400090102081454543C7F0804047800447D10
:1019040040002040443D00007F10284400417F40B7
:10191400007C041804787C0804047838444444386F
:101924007C14141408081414187C7C080404084853
:1019340054545420043F4440203C4040207C1C200C
:1019440040201C3C4030403C44281028440C50505B
:10195400503C4464544C44000836410000007F006D
:1019640000004136080008082A1C08081C2A080838
:0C19740048656C6C6F20576F726C64004B
:04198000C114000886
:0400000508000000EF
:00000001FF
