:020000040800F2
:1000000000200020B90000082D0100082D01000883
:100010002D0100082D0100082D0100082D01000808
:100020002D0100082D0100082D0100082D010008F8
:100030002D0100082D0100082D0100082D010008E8
:100040002D0100082D0100082D0100082D010008D8
:100050002D0100082D0100082D0100082D010008C8
:100060002D0100082D0100082D0100082D010008B8
:100070002D0100082D0100082D0100082D010008A8
:100080002D0100082D0100082D0100082D01000898
:100090002D0100082D0100082D0100082D01000888
:1000A0002D0100082D0100082D0100082D01000878
:1000B0002D0100082D01000880B584B000AF164B5B
:1000C000FB60164BBB60164A144BD31A7B6007E0EB
:1000D000BB685A1CBA60FA68511CF96012781A7031
:1000E0007B685A1E7A60002BF2D10E4BBB600E4A21
:1000F0000C4BD31A7B6004E0BB685A1CBA60002228
:100100001A707B685A1E7A60002BF5D100F03EF819
:10011000C046BD4604B080BDCC01000800000020F0
:1001200000000020000000200000002080B500AF8B
:10013000FEE7C04680B582B000AF7860C0467B68FD
:100140005A1E7A60002BFAD1C046BD4602B080BD6F
:1001500080B500AF0A4B0A4A126804210A431A60AC
:10016000084B084A126808490A401A60054B054ABC
:100170001268802149050A431A60C046BD4680BD09
:100180002C10024000080050FFFFFFDF80B500AFD9
:10019000FFF7DEFF0A4B0A4A12688021C9010A43B1
:1001A0001A60084B1800FFF7C5FF054B044A126898
:1001B00005490A401A60034B1800FFF7BBFFE9E747
:0C01C00014080050A0860100FFBFFFFFE4
:0400000508000000EF
:00000001FF
