:020000040800F2
:100000000020002015040008890400088904000865
:10001000890400088904000889040008890400088C
:10002000890400088904000889040008890400087C
:10003000890400088904000889040008890400086C
:10004000890400088904000889040008890400085C
:10005000890400088904000889040008890400084C
:10006000890400088904000889040008890400083C
:10007000890400088904000889040008890400082C
:10008000890400088904000889040008890400081C
:100090008904000889040008890400088502000812
:1000A00089040008890400088904000889040008FC
:1000B000890400088904000880B500AF224B224A59
:1000C000126801210A431A60204B204A12688021DD
:1000D00089030A431A60A023DB05A022D205126817
:1000E000A02189030A431A60A023DB05A022D205C0
:1000F000126817490A401A60164B164A12681649C8
:100100000A401A60134B134A1268882149000A43B7
:100110001A60124B114A126811490A401A60114BB9
:10012000114A1A60114B114A1268802109040A43CE
:100130001A600F4B0F4A1A600F4B46221A600023B9
:100140001800BD4680BDC0462C1002403810024049
:10015000FFFFEBFF240000500FF0FFFF28100240CC
:10016000FFFFDFFF10540040130F421000E100E0DA
:100170001C540040383F00000054004080B584B05B
:1001800000AF7860374BFB60374B374A126801216C
:100190008A431A60354B7A681A60344B1B68002218
:1001A0005A60324B1B6800229A60304B1B68002259
:1001B0005A612E4B1B6800229A612D4B1B682D4AF9
:1001C0001340BB60294B1B68DB681A04FF231B0428
:1001D0001340BA681343BB60BB68FF229343BB6004
:1001E000224B1B685B78DBB25B00FE2213401A00D7
:1001F000BB681343BB60BB681F4A1340BB607B688E
:100200001B7820221343DAB27B681A70BB681B4A42
:100210001340BB60BB681A4A1340BB60144BBA68FA
:100220001A60114B104A126801210A431A6000F04B
:10023000D5F8C0460D4B1B689B69002B04D1FB68A9
:100240005A1EFA60002BF5D1FB68002B02DC01235B
:100250005B4202E0054B1B685B691800BD4604B0B9
:1002600080BDC046FFFF0F00005400400400002086
:1002700004540040FFFF00FFFFF7FFFFFFFBFFFFFD
:10028000FFFFFFFD90B583B000AF4D4B1A684D4B9B
:100290001A604C4B1B680222134016D04A494B4B44
:1002A0001A684A4B1B685B68D3181B7FDBB20B7064
:1002B000464B1B685A68454B1B68DB689A4204D260
:1002C000424B1B685A6801325A603E4B1B6804223D
:1002D000134024D03D4B19683C4B1B689A68501C56
:1002E00098603B4B1B78DCB29E208B181B18221C9D
:1002F0001A70364B1B689A68344B1B681B699A420C
:100300000DD3324B1B6800229A6000F075F82F4B1A
:100310001B6802225A612D4B1B6801229A61294BEE
:100320001B684022134029D0284B1B681B78DBB286
:10033000772B0AD1254B1B6801225A6100F05CF82B
:10034000224B1B6801229A6118E0224B1B68224A4B
:1003500013407B601D4B1B681B691A04FF231B04A1
:1003600013407A6813437B607B688022D20013437A
:100370007B60184B7A681A6000F030F8114B1B68EC
:100380008022134009D0114B1B6802225A6100F0F1
:1003900033F80E4B1B6801229A610A4B1A68F0234E
:1003A0001B01134008D0094B1B68012252425A61BD
:1003B000064B1B6801229A61C046BD4603B090BD42
:1003C0001854004000000020285400400400002081
:1003D0002454004004540040FFFF00FF80B500AFEC
:1003E000044B044A1268802189010A431A60C046FE
:1003F000BD4680BD0454004080B500AF044B044AA4
:1004000012688021C9010A431A60C046BD4680BDFA
:100410000454004080B584B000AF164BFB60164B0F
:10042000BB60164A144BD31A7B6007E0BB685A1CAA
:10043000BA60FA68511CF96012781A707B685A1E0B
:100440007A60002BF2D10E4BBB600E4A0C4BD31AD4
:100450007B6004E0BB685A1CBA6000221A707B689B
:100460005A1E7A60002BF5D100F061FBC046BD46F4
:1004700004B080BD9C0E0008000000200000002099
:10048000000000200800002080B500AFFEE7C04655
:1004900080B582B000AF7860C0467B685A1E7A6033
:1004A000002BFAD1C046BD4602B080BD80B500AF7A
:1004B0000A4B0A4A126804210A431A60084B084A88
:1004C000126808490A401A60054B054A12688021E3
:1004D00049050A431A60C046BD4680BD2C10024043
:1004E00000080050FFFFFFDF80B5CAB000AF020078
:1004F0002A4B942040008446BC4463441A70284B25
:10050000942252009446BC4463440A1C1A70254B42
:10051000942252009446BC44634477221A70214BC3
:10052000942252009446BC4463443C225A701D4BB2
:10053000942252009446BC4463440222DA60194B70
:10054000942252009446BC44634400221A61154B25
:10055000942252009446BC446344104A94214900BA
:100560008C46BC44624412781A770E4B9422520097
:100570009446BC4463440A4A942149008C46BC44D6
:10058000624412785A770823FB181800FFF7F6FD2B
:100590000300DBB21800BD464AB080BDDFFEFFFF9E
:1005A000DEFEFFFFE0FEFFFF80B500AFAE210020C2
:1005B000FFF79AFFD5210020FFF796FF802100204A
:1005C000FFF792FFA8210020FFF78EFF3F210020B8
:1005D000FFF78AFFD3210020FFF786FF00210020CC
:1005E000FFF782FF40210020FFF77EFF8D210020D2
:1005F000FFF77AFF14210020FFF776FF202100206B
:10060000FFF772FF00210020FFF76EFFA1210020FD
:10061000FFF76AFFC8210020FFF766FFDA210020FC
:10062000FFF762FF12210020FFF75EFF812100200B
:10063000FFF75AFFCF210020FFF756FFD9210020F6
:10064000FFF752FFF1210020FFF74EFFDB210020D2
:10065000FFF74AFF40210020FFF746FFA4210020BA
:10066000FFF742FFA6210020FFF73EFF2E210020CA
:10067000FFF73AFFAF210020FFF736FFC046BD4627
:1006800080BD90B5CDB000AF040008001100444B10
:10069000982252009446BC446344221C1A70414B79
:1006A000982252009446BC446344021C1A703E4B8C
:1006B000982252009446BC4463440A1C1A703B4B77
:1006C000982252009446BC44634477221A70374BF8
:1006D000982252009446BC4463443C225A70314BE9
:1006E000982252009446BC4463441B7801331A009C
:1006F0002E4B982149008C46BC446344DA602B4B56
:10070000982252009446BC44634400221A61274B4D
:10071000982252009446BC446344214A98214900DF
:100720008C46BC44624412781A7700239622520009
:10073000BA1813601CE096235B00FB181B6801339A
:100740001A4A982149008C46BC446244D318164A80
:10075000982149008C46BC44624412781A7796234B
:100760005B00FB181B68013396225200BA18136015
:100770000C4B982252009446BC4463441A7896234A
:100780005B00FB181B689A42D5DC0C23FB18180091
:10079000FFF7F4FC0300DBB21800BD464DB090BD7E
:1007A000D7FEFFFFD6FEFFFFD5FEFFFFDCFEFFFFFB
:1007B00080B5CCB000AF3A60464B982252009446C8
:1007C000BC446344021C1A70434B98225200944666
:1007D000BC4463440A1C1A703F4B98225200944652
:1007E000BC4463441B78802B01D9FF236DE03B4B55
:1007F000982252009446BC44634477221A70374BC7
:10080000982252009446BC4463443C225A70324BB6
:10081000982252009446BC4463441B7801331A006A
:100820002E4B982149008C46BC446344DA602B4B24
:10083000982252009446BC44634400221A61274B1C
:10084000982252009446BC446344224A98214900AD
:100850008C46BC44624412781A77002396225200D8
:10086000BA1813601DE096235B00FB181B68013368
:1008700096225200BA18126839688A181178174AF5
:10088000982040008446BC446244D3180A1C1A775E
:1008900096235B00FB181B68013396225200BA189E
:1008A00013600D4B982252009446BC4463441A785E
:1008B00096235B00FB181B689A42D4DC0C23FB18C0
:1008C0001800FFF75BFC0300DBB21800BD464CB01C
:1008D00080BDC046D7FEFFFFD6FEFFFFDCFEFFFF58
:1008E00080B582B000AF786021210020FFF7FCFDC9
:1008F00000210020FFF7F8FD7F210020FFF7F4FD25
:1009000022210020FFF7F0FD7B68DBB219000020F8
:10091000FFF7EAFD07210020FFF7E6FD0022802116
:100920004020FFF7AEFEC046BD4602B080BD80B598
:1009300082B000AF00237B6006E07B681800FFF701
:10094000CFFF7B6801337B607B68072BF5DDC046FA
:10095000BD4602B080BD80B582B000AF786039601E
:1009600021210020FFF7C0FD00210020FFF7BCFD82
:100970007F210020FFF7B8FD22210020FFF7B4FD02
:100980007B68DBB219000020FFF7AEFD07210020D5
:10099000FFF7AAFD3B681A0080214020FFF708FFFF
:1009A000C046BD4602B080BD80B5A6B000AFF860BD
:1009B000B9607A6000239422BA1813600EE0142301
:1009C000FA189423FB181B68D31800221A7094237A
:1009D000FB181B6801339422BA1813609423FB1888
:1009E0001B687F2BEBDD31E000239422BA181360E3
:1009F0001EE0FA6813009B009A189423FB181B68EA
:100A0000D1187B681B78203B1A0013009B009A18B2
:100A10009423FB181B68D318154AD25C1423FB18C7
:100A20005A549423FB181B6801339422BA1813609C
:100A30009423FB181B68042BDBDDFB680133FB6090
:100A40007B6801337B60FB68182B04DC7B681B78B8
:100A5000002BC9D100E0C0461423FA18BB6811006E
:100A60001800FFF778FFC046BD4626B080BDC046DF
:100A7000AC0C000890B585B000AF786039607B6839
:100A80000A3300221A700023FB6019E0FB68092278
:100A9000D31A1A007B689C183B680A21180000F0E2
:100AA000FFF80B00DBB23033DBB223703B680A2166
:100AB000180000F06FF803003B60FB680133FB6037
:100AC000FB68092BE2DDC046BD4605B090BD80B590
:100AD00084B000AF786039607B68083300221A70F8
:100AE0000023BB601CE03B680F221340FB60FB68E7
:100AF000092B03DCFB683033FB6002E0FB68373313
:100B0000FB60BB680722D31A1A007B689B18FA683F
:100B1000D2B21A703B681B093B60BB680133BB60F3
:100B2000BB68072BDFDDC046BD4604B080BD80B585
:100B300084B000AF0023FB60FFF7B8FCFFF7BCFAFE
:100B400062B6FFF731FDFFF7F2FE114B1A000021EC
:100B50000020FFF729FFFA683B0011001800FFF79B
:100B600089FF3B001A0002210020FFF71DFFFA68F1
:100B70003B0011001800FFF7AAFF3B001A000421F8
:100B80000020FFF711FFFB680133FB60E3E7C0467D
:100B90008C0E0008002243088B4274D303098B4259
:100BA0005FD3030A8B4244D3030B8B4228D3030C3D
:100BB0008B420DD3FF22090212BA030C8B4202D3DF
:100BC0001212090265D0030B8B4219D300E0090A07
:100BD000C30B8B4201D3CB03C01A5241830B8B4210
:100BE00001D38B03C01A5241430B8B4201D34B03F9
:100BF000C01A5241030B8B4201D30B03C01A52415E
:100C0000C30A8B4201D3CB02C01A5241830A8B42E2
:100C100001D38B02C01A5241430A8B4201D34B02CB
:100C2000C01A5241030A8B4201D30B02C01A52412F
:100C3000CDD2C3098B4201D3CB01C01A52418309E3
:100C40008B4201D38B01C01A524143098B4201D31D
:100C50004B01C01A524103098B4201D30B01C01A48
:100C60005241C3088B4201D3CB00C01A52418308C2
:100C70008B4201D38B00C01A524143088B4201D3EF
:100C80004B00C01A5241411A00D20146524110464F
:100C90007047FFE701B5002000F006F802BDC0462E
:0C0CA0000029F7D076E770477047C04687
:100CAC00000000000000005F0000000700070014B7
:100CBC007F147F14242A7F2A122313086462364976
:100CCC005522500005030000001C22410000412267
:100CDC001C00082A1C2A0808083E0808005030008E
:100CEC0000080808080800606000002010080402D2
:100CFC003E5149453E00427F4000426151494621E8
:100D0C0041454B311814127F1027454545393C4A53
:100D1C0049493001710905033649494936064949A3
:100D2C00291E00363600000056360000000814223A
:100D3C004114141414144122140800020151090620
:100D4C00324979413E7E1111117E7F494949363E27
:100D5C00414141227F4141221C7F494949417F0940
:100D6C000901013E414151327F0808087F00417F53
:100D7C0041002040413F017F081422417F40404008
:100D8C00407F0204027F7F0408107F3E4141413EB8
:100D9C007F090909063E4151215E7F091929464602
:100DAC004949493101017F01013F4040403F1F202B
:100DBC0040201F7F2018207F6314081463030478DD
:100DCC000403615149454300007F4141020408106E
:100DDC002041417F00000402010204404040404099
:100DEC00000102040020545454787F48444438389D
:100DFC0044444420384444487F3854545418087EA2
:100E0C00090102081454543C7F0804047800447D02
:100E1C0040002040443D00007F10284400417F40AA
:100E2C00007C041804787C08040478384444443862
:100E3C007C14141408081414187C7C080404084846
:100E4C0054545420043F4440203C4040207C1C20FF
:100E5C0040201C3C4030403C44281028440C50504E
:100E6C00503C4464544C44000836410000007F0060
:100E7C0000004136080008082A1C08081C2A08082B
:100E8C0048656C6C6F20576F726C64203A2D29008A
:0400000508000000EF
:00000001FF
